{
  "_format": "hh-sol-artifact-1",
  "contractName": "DeDropsNFT",
  "sourceName": "contracts/badland/DeDropsNFT.sol",
  "abi": [
    {
      "inputs": [
        {
          "internalType": "address",
          "name": "bankAddress",
          "type": "address"
        }
      ],
      "stateMutability": "nonpayable",
      "type": "constructor"
    },
    {
      "anonymous": false,
      "inputs": [
        {
          "indexed": true,
          "internalType": "address",
          "name": "account",
          "type": "address"
        },
        {
          "indexed": true,
          "internalType": "address",
          "name": "operator",
          "type": "address"
        },
        {
          "indexed": false,
          "internalType": "bool",
          "name": "approved",
          "type": "bool"
        }
      ],
      "name": "ApprovalForAll",
      "type": "event"
    },
    {
      "anonymous": false,
      "inputs": [
        {
          "indexed": true,
          "internalType": "address",
          "name": "previousOwner",
          "type": "address"
        },
        {
          "indexed": true,
          "internalType": "address",
          "name": "newOwner",
          "type": "address"
        }
      ],
      "name": "OwnershipTransferred",
      "type": "event"
    },
    {
      "anonymous": false,
      "inputs": [
        {
          "indexed": true,
          "internalType": "address",
          "name": "operator",
          "type": "address"
        },
        {
          "indexed": true,
          "internalType": "address",
          "name": "from",
          "type": "address"
        },
        {
          "indexed": true,
          "internalType": "address",
          "name": "to",
          "type": "address"
        },
        {
          "indexed": false,
          "internalType": "uint256[]",
          "name": "ids",
          "type": "uint256[]"
        },
        {
          "indexed": false,
          "internalType": "uint256[]",
          "name": "values",
          "type": "uint256[]"
        }
      ],
      "name": "TransferBatch",
      "type": "event"
    },
    {
      "anonymous": false,
      "inputs": [
        {
          "indexed": true,
          "internalType": "address",
          "name": "operator",
          "type": "address"
        },
        {
          "indexed": true,
          "internalType": "address",
          "name": "from",
          "type": "address"
        },
        {
          "indexed": true,
          "internalType": "address",
          "name": "to",
          "type": "address"
        },
        {
          "indexed": false,
          "internalType": "uint256",
          "name": "id",
          "type": "uint256"
        },
        {
          "indexed": false,
          "internalType": "uint256",
          "name": "value",
          "type": "uint256"
        }
      ],
      "name": "TransferSingle",
      "type": "event"
    },
    {
      "anonymous": false,
      "inputs": [
        {
          "indexed": false,
          "internalType": "string",
          "name": "value",
          "type": "string"
        },
        {
          "indexed": true,
          "internalType": "uint256",
          "name": "id",
          "type": "uint256"
        }
      ],
      "name": "URI",
      "type": "event"
    },
    {
      "inputs": [
        {
          "internalType": "address",
          "name": "account",
          "type": "address"
        },
        {
          "internalType": "uint256",
          "name": "id",
          "type": "uint256"
        }
      ],
      "name": "balanceOf",
      "outputs": [
        {
          "internalType": "uint256",
          "name": "",
          "type": "uint256"
        }
      ],
      "stateMutability": "view",
      "type": "function"
    },
    {
      "inputs": [
        {
          "internalType": "address[]",
          "name": "accounts",
          "type": "address[]"
        },
        {
          "internalType": "uint256[]",
          "name": "ids",
          "type": "uint256[]"
        }
      ],
      "name": "balanceOfBatch",
      "outputs": [
        {
          "internalType": "uint256[]",
          "name": "",
          "type": "uint256[]"
        }
      ],
      "stateMutability": "view",
      "type": "function"
    },
    {
      "inputs": [],
      "name": "bank",
      "outputs": [
        {
          "internalType": "contract Bank1155",
          "name": "",
          "type": "address"
        }
      ],
      "stateMutability": "view",
      "type": "function"
    },
    {
      "inputs": [
        {
          "internalType": "uint256",
          "name": "",
          "type": "uint256"
        }
      ],
      "name": "idToNFT",
      "outputs": [
        {
          "internalType": "uint256",
          "name": "id",
          "type": "uint256"
        },
        {
          "internalType": "string",
          "name": "name",
          "type": "string"
        },
        {
          "internalType": "string",
          "name": "url",
          "type": "string"
        },
        {
          "internalType": "uint256",
          "name": "amount",
          "type": "uint256"
        },
        {
          "internalType": "string",
          "name": "info",
          "type": "string"
        },
        {
          "internalType": "string",
          "name": "info2",
          "type": "string"
        }
      ],
      "stateMutability": "view",
      "type": "function"
    },
    {
      "inputs": [
        {
          "internalType": "address",
          "name": "account",
          "type": "address"
        },
        {
          "internalType": "address",
          "name": "operator",
          "type": "address"
        }
      ],
      "name": "isApprovedForAll",
      "outputs": [
        {
          "internalType": "bool",
          "name": "",
          "type": "bool"
        }
      ],
      "stateMutability": "view",
      "type": "function"
    },
    {
      "inputs": [],
      "name": "length",
      "outputs": [
        {
          "internalType": "uint256",
          "name": "",
          "type": "uint256"
        }
      ],
      "stateMutability": "view",
      "type": "function"
    },
    {
      "inputs": [
        {
          "internalType": "string",
          "name": "name",
          "type": "string"
        },
        {
          "internalType": "string",
          "name": "url",
          "type": "string"
        },
        {
          "internalType": "uint256",
          "name": "amount",
          "type": "uint256"
        },
        {
          "internalType": "string",
          "name": "info",
          "type": "string"
        },
        {
          "internalType": "string",
          "name": "info2",
          "type": "string"
        }
      ],
      "name": "mint",
      "outputs": [],
      "stateMutability": "nonpayable",
      "type": "function"
    },
    {
      "inputs": [],
      "name": "owner",
      "outputs": [
        {
          "internalType": "address",
          "name": "",
          "type": "address"
        }
      ],
      "stateMutability": "view",
      "type": "function"
    },
    {
      "inputs": [],
      "name": "renounceOwnership",
      "outputs": [],
      "stateMutability": "nonpayable",
      "type": "function"
    },
    {
      "inputs": [
        {
          "internalType": "address",
          "name": "from",
          "type": "address"
        },
        {
          "internalType": "address",
          "name": "to",
          "type": "address"
        },
        {
          "internalType": "uint256[]",
          "name": "ids",
          "type": "uint256[]"
        },
        {
          "internalType": "uint256[]",
          "name": "amounts",
          "type": "uint256[]"
        },
        {
          "internalType": "bytes",
          "name": "data",
          "type": "bytes"
        }
      ],
      "name": "safeBatchTransferFrom",
      "outputs": [],
      "stateMutability": "nonpayable",
      "type": "function"
    },
    {
      "inputs": [
        {
          "internalType": "address",
          "name": "from",
          "type": "address"
        },
        {
          "internalType": "address",
          "name": "to",
          "type": "address"
        },
        {
          "internalType": "uint256",
          "name": "id",
          "type": "uint256"
        },
        {
          "internalType": "uint256",
          "name": "amount",
          "type": "uint256"
        },
        {
          "internalType": "bytes",
          "name": "data",
          "type": "bytes"
        }
      ],
      "name": "safeTransferFrom",
      "outputs": [],
      "stateMutability": "nonpayable",
      "type": "function"
    },
    {
      "inputs": [
        {
          "internalType": "address",
          "name": "operator",
          "type": "address"
        },
        {
          "internalType": "bool",
          "name": "approved",
          "type": "bool"
        }
      ],
      "name": "setApprovalForAll",
      "outputs": [],
      "stateMutability": "nonpayable",
      "type": "function"
    },
    {
      "inputs": [
        {
          "internalType": "bytes4",
          "name": "interfaceId",
          "type": "bytes4"
        }
      ],
      "name": "supportsInterface",
      "outputs": [
        {
          "internalType": "bool",
          "name": "",
          "type": "bool"
        }
      ],
      "stateMutability": "view",
      "type": "function"
    },
    {
      "inputs": [
        {
          "internalType": "address",
          "name": "newOwner",
          "type": "address"
        }
      ],
      "name": "transferOwnership",
      "outputs": [],
      "stateMutability": "nonpayable",
      "type": "function"
    },
    {
      "inputs": [
        {
          "internalType": "uint256",
          "name": "",
          "type": "uint256"
        }
      ],
      "name": "uri",
      "outputs": [
        {
          "internalType": "string",
          "name": "",
          "type": "string"
        }
      ],
      "stateMutability": "view",
      "type": "function"
    }
  ],
  "bytecode": "0x608060405260006005553480156200001657600080fd5b50604051620024d0380380620024d0833981810160405260208110156200003c57600080fd5b505160408051808201909152600b81526a3232b23937b839973c3cbd60a91b6020820152620000726301ffc9a760e01b62000122565b6200007d81620001a7565b6200008f636cdb3d1360e11b62000122565b620000a16303a24d0760e21b62000122565b506000620000ae620001c0565b600480546001600160a01b0319166001600160a01b038316908117909155604051919250906000907f8be0079c531659141344cd1fd0a4f28419497f9722a3daafe3b4186f6b6457e0908290a350600680546001600160a01b0319166001600160a01b039290921691909117905562000260565b6001600160e01b0319808216141562000182576040805162461bcd60e51b815260206004820152601c60248201527f4552433136353a20696e76616c696420696e7465726661636520696400000000604482015290519081900360640190fd5b6001600160e01b0319166000908152602081905260409020805460ff19166001179055565b8051620001bc906003906020840190620001c4565b5050565b3390565b828054600181600116156101000203166002900490600052602060002090601f016020900481019282601f106200020757805160ff191683800117855562000237565b8280016001018555821562000237579182015b82811115620002375782518255916020019190600101906200021a565b506200024592915062000249565b5090565b5b808211156200024557600081556001016200024a565b61226080620002706000396000f3fe608060405234801561001057600080fd5b50600436106100f45760003560e01c8063715018a611610097578063e2f6292711610066578063e2f6292714610779578063e985e9c5146108db578063f242432a14610909578063f2fde38b146109d2576100f4565b8063715018a61461071757806376cdb03b1461071f5780638da5cb5b14610743578063a22cb4651461074b576100f4565b80631f7b6d32116100d35780631f7b6d32146102045780632eb2c2d61461020c57806333aa49cd146103cf5780634e1273f4146105a4576100f4565b8062fdd58e146100f957806301ffc9a7146101375780630e89341c14610172575b600080fd5b6101256004803603604081101561010f57600080fd5b506001600160a01b0381351690602001356109f8565b60408051918252519081900360200190f35b61015e6004803603602081101561014d57600080fd5b50356001600160e01b031916610a67565b604080519115158252519081900360200190f35b61018f6004803603602081101561018857600080fd5b5035610a86565b6040805160208082528351818301528351919283929083019185019080838360005b838110156101c95781810151838201526020016101b1565b50505050905090810190601f1680156101f65780820380516001836020036101000a031916815260200191505b509250505060405180910390f35b610125610b1e565b6103cd600480360360a081101561022257600080fd5b6001600160a01b038235811692602081013590911691810190606081016040820135600160201b81111561025557600080fd5b82018360208201111561026757600080fd5b803590602001918460208302840111600160201b8311171561028857600080fd5b9190808060200260200160405190810160405280939291908181526020018383602002808284376000920191909152509295949360208101935035915050600160201b8111156102d757600080fd5b8201836020820111156102e957600080fd5b803590602001918460208302840111600160201b8311171561030a57600080fd5b9190808060200260200160405190810160405280939291908181526020018383602002808284376000920191909152509295949360208101935035915050600160201b81111561035957600080fd5b82018360208201111561036b57600080fd5b803590602001918460018302840111600160201b8311171561038c57600080fd5b91908080601f016020809104026020016040519081016040528093929190818152602001838380828437600092019190915250929550610b24945050505050565b005b6103ec600480360360208110156103e557600080fd5b5035610e22565b604051808781526020018060200180602001868152602001806020018060200185810385528a818151815260200191508051906020019080838360005b83811015610441578181015183820152602001610429565b50505050905090810190601f16801561046e5780820380516001836020036101000a031916815260200191505b5085810384528951815289516020918201918b019080838360005b838110156104a1578181015183820152602001610489565b50505050905090810190601f1680156104ce5780820380516001836020036101000a031916815260200191505b50858103835287518152875160209182019189019080838360005b838110156105015781810151838201526020016104e9565b50505050905090810190601f16801561052e5780820380516001836020036101000a031916815260200191505b50858103825286518152865160209182019188019080838360005b83811015610561578181015183820152602001610549565b50505050905090810190601f16801561058e5780820380516001836020036101000a031916815260200191505b509a505050505050505050505060405180910390f35b6106c7600480360360408110156105ba57600080fd5b810190602081018135600160201b8111156105d457600080fd5b8201836020820111156105e657600080fd5b803590602001918460208302840111600160201b8311171561060757600080fd5b9190808060200260200160405190810160405280939291908181526020018383602002808284376000920191909152509295949360208101935035915050600160201b81111561065657600080fd5b82018360208201111561066857600080fd5b803590602001918460208302840111600160201b8311171561068957600080fd5b919080806020026020016040519081016040528093929190818152602001838360200280828437600092019190915250929550611082945050505050565b60408051602080825283518183015283519192839290830191858101910280838360005b838110156107035781810151838201526020016106eb565b505050509050019250505060405180910390f35b6103cd61116e565b61072761122c565b604080516001600160a01b039092168252519081900360200190f35b61072761123b565b6103cd6004803603604081101561076157600080fd5b506001600160a01b038135169060200135151561124b565b6103cd600480360360a081101561078f57600080fd5b810190602081018135600160201b8111156107a957600080fd5b8201836020820111156107bb57600080fd5b803590602001918460018302840111600160201b831117156107dc57600080fd5b919390929091602081019035600160201b8111156107f957600080fd5b82018360208201111561080b57600080fd5b803590602001918460018302840111600160201b8311171561082c57600080fd5b91939092823592604081019060200135600160201b81111561084d57600080fd5b82018360208201111561085f57600080fd5b803590602001918460018302840111600160201b8311171561088057600080fd5b919390929091602081019035600160201b81111561089d57600080fd5b8201836020820111156108af57600080fd5b803590602001918460018302840111600160201b831117156108d057600080fd5b50909250905061133a565b61015e600480360360408110156108f157600080fd5b506001600160a01b0381358116916020013516611537565b6103cd600480360360a081101561091f57600080fd5b6001600160a01b03823581169260208101359091169160408201359160608101359181019060a081016080820135600160201b81111561095e57600080fd5b82018360208201111561097057600080fd5b803590602001918460018302840111600160201b8311171561099157600080fd5b91908080601f016020809104026020016040519081016040528093929190818152602001838380828437600092019190915250929550611565945050505050565b6103cd600480360360208110156109e857600080fd5b50356001600160a01b0316611730565b60006001600160a01b038316610a3f5760405162461bcd60e51b815260040180806020018281038252602b815260200180612095602b913960400191505060405180910390fd5b5060009081526001602090815260408083206001600160a01b03949094168352929052205490565b6001600160e01b03191660009081526020819052604090205460ff1690565b60038054604080516020601f6002600019610100600188161502019095169490940493840181900481028201810190925282815260609390929091830182828015610b125780601f10610ae757610100808354040283529160200191610b12565b820191906000526020600020905b815481529060010190602001808311610af557829003601f168201915b50505050509050919050565b60055481565b8151835114610b645760405162461bcd60e51b81526004018080602001828103825260288152602001806121e26028913960400191505060405180910390fd5b6001600160a01b038416610ba95760405162461bcd60e51b815260040180806020018281038252602581526020018061210f6025913960400191505060405180910390fd5b610bb1611845565b6001600160a01b0316856001600160a01b03161480610bdc5750610bdc85610bd7611845565b611537565b610c175760405162461bcd60e51b81526004018080602001828103825260328152602001806121346032913960400191505060405180910390fd5b6000610c21611845565b9050610c31818787878787610e1a565b60005b8451811015610d32576000858281518110610c4b57fe5b602002602001015190506000858381518110610c6357fe5b60200260200101519050610cd0816040518060600160405280602a8152602001612166602a91396001600086815260200190815260200160002060008d6001600160a01b03166001600160a01b03168152602001908152602001600020546118499092919063ffffffff16565b60008381526001602090815260408083206001600160a01b038e811685529252808320939093558a1681522054610d0790826118e0565b60009283526001602081815260408086206001600160a01b038d168752909152909320555001610c34565b50846001600160a01b0316866001600160a01b0316826001600160a01b03167f4a39dc06d4c0dbc64b70af90fd698a233a518aa5d07e595d983b8c0526c8f7fb8787604051808060200180602001838103835285818151815260200191508051906020019060200280838360005b83811015610db8578181015183820152602001610da0565b50505050905001838103825284818151815260200191508051906020019060200280838360005b83811015610df7578181015183820152602001610ddf565b5050505090500194505050505060405180910390a4610e1a818787878787611941565b505050505050565b6007602090815260009182526040918290208054600180830180548651600293821615610100026000190190911692909204601f810186900486028301860190965285825291949293909290830182828015610ebf5780601f10610e9457610100808354040283529160200191610ebf565b820191906000526020600020905b815481529060010190602001808311610ea257829003601f168201915b50505060028085018054604080516020601f6000196101006001871615020190941695909504928301859004850281018501909152818152959695945090925090830182828015610f515780601f10610f2657610100808354040283529160200191610f51565b820191906000526020600020905b815481529060010190602001808311610f3457829003601f168201915b50505050600383015460048401805460408051602060026001851615610100026000190190941693909304601f81018490048402820184019092528181529596939593945090830182828015610fe85780601f10610fbd57610100808354040283529160200191610fe8565b820191906000526020600020905b815481529060010190602001808311610fcb57829003601f168201915b5050505060058301805460408051602060026001851615610100026000190190941693909304601f81018490048402820184019092528181529495949350908301828280156110785780601f1061104d57610100808354040283529160200191611078565b820191906000526020600020905b81548152906001019060200180831161105b57829003601f168201915b5050505050905086565b606081518351146110c45760405162461bcd60e51b81526004018080602001828103825260298152602001806121b96029913960400191505060405180910390fd5b6060835167ffffffffffffffff811180156110de57600080fd5b50604051908082528060200260200182016040528015611108578160200160208202803683370190505b50905060005b84518110156111665761114785828151811061112657fe5b602002602001015185838151811061113a57fe5b60200260200101516109f8565b82828151811061115357fe5b602090810291909101015260010161110e565b509392505050565b611176611845565b6001600160a01b031661118761123b565b6001600160a01b0316146111e2576040805162461bcd60e51b815260206004820181905260248201527f4f776e61626c653a2063616c6c6572206973206e6f7420746865206f776e6572604482015290519081900360640190fd5b6004546040516000916001600160a01b0316907f8be0079c531659141344cd1fd0a4f28419497f9722a3daafe3b4186f6b6457e0908390a3600480546001600160a01b0319169055565b6006546001600160a01b031681565b6004546001600160a01b03165b90565b816001600160a01b031661125d611845565b6001600160a01b031614156112a35760405162461bcd60e51b81526004018080602001828103825260298152602001806121906029913960400191505060405180910390fd5b80600260006112b0611845565b6001600160a01b03908116825260208083019390935260409182016000908120918716808252919093529120805460ff1916921515929092179091556112f4611845565b6001600160a01b03167f17307eab39ab6107e8899845ad3d59bd9653f200f220920489ca2b5937696c318360405180821515815260200191505060405180910390a35050565b60058054600101908190556040805160c08101825282815281516020601f8d018190048102820181019093528b8152909180830191908d908d9081908401838280828437600092019190915250505090825250604080516020601f8c018190048102820181019092528a815291810191908b908b9081908401838280828437600092019190915250505090825250602080820189905260408051601f89018390048302810183018252888152920191908890889081908401838280828437600092019190915250505090825250604080516020601f87018190048102820181019092528581529181019190869086908190840183828082843760009201829052509390945250508381526007602090815260409091208351815583820151805191935061146e926001850192910190611efa565b506040820151805161148a916002840191602090910190611efa565b5060608201516003820155608082015180516114b0916004840191602090910190611efa565b5060a082015180516114cc916005840191602090910190611efa565b509050506114eb33828860405180602001604052806000815250611bc0565b600654611502906001600160a01b0316600161124b565b60065461152b9033906001600160a01b0316838961152661152161123b565b611cc8565b611565565b50505050505050505050565b6001600160a01b03918216600090815260026020908152604080832093909416825291909152205460ff1690565b6001600160a01b0384166115aa5760405162461bcd60e51b815260040180806020018281038252602581526020018061210f6025913960400191505060405180910390fd5b6115b2611845565b6001600160a01b0316856001600160a01b031614806115d857506115d885610bd7611845565b6116135760405162461bcd60e51b81526004018080602001828103825260298152602001806120e66029913960400191505060405180910390fd5b600061161d611845565b905061163d81878761162e88611d3f565b61163788611d3f565b87610e1a565b611684836040518060600160405280602a8152602001612166602a913960008781526001602090815260408083206001600160a01b038d1684529091529020549190611849565b60008581526001602090815260408083206001600160a01b038b811685529252808320939093558716815220546116bb90846118e0565b60008581526001602090815260408083206001600160a01b03808b168086529184529382902094909455805188815291820187905280518a8416938616927fc3d58168c5ae7397731d063d5bbf3d657854427343f4c083240f7aacaa2d0f6292908290030190a4610e1a818787878787611d83565b611738611845565b6001600160a01b031661174961123b565b6001600160a01b0316146117a4576040805162461bcd60e51b815260206004820181905260248201527f4f776e61626c653a2063616c6c6572206973206e6f7420746865206f776e6572604482015290519081900360640190fd5b6001600160a01b0381166117e95760405162461bcd60e51b81526004018080602001828103825260268152602001806120c06026913960400191505060405180910390fd5b6004546040516001600160a01b038084169216907f8be0079c531659141344cd1fd0a4f28419497f9722a3daafe3b4186f6b6457e090600090a3600480546001600160a01b0319166001600160a01b0392909216919091179055565b3390565b600081848411156118d85760405162461bcd60e51b81526004018080602001828103825283818151815260200191508051906020019080838360005b8381101561189d578181015183820152602001611885565b50505050905090810190601f1680156118ca5780820380516001836020036101000a031916815260200191505b509250505060405180910390fd5b505050900390565b60008282018381101561193a576040805162461bcd60e51b815260206004820152601b60248201527f536166654d6174683a206164646974696f6e206f766572666c6f770000000000604482015290519081900360640190fd5b9392505050565b611953846001600160a01b0316611ef4565b15610e1a57836001600160a01b031663bc197c8187878686866040518663ffffffff1660e01b815260040180866001600160a01b03168152602001856001600160a01b03168152602001806020018060200180602001848103845287818151815260200191508051906020019060200280838360005b838110156119e15781810151838201526020016119c9565b50505050905001848103835286818151815260200191508051906020019060200280838360005b83811015611a20578181015183820152602001611a08565b50505050905001848103825285818151815260200191508051906020019080838360005b83811015611a5c578181015183820152602001611a44565b50505050905090810190601f168015611a895780820380516001836020036101000a031916815260200191505b5098505050505050505050602060405180830381600087803b158015611aae57600080fd5b505af1925050508015611ad357506040513d6020811015611ace57600080fd5b505160015b611b6857611adf611f93565b80611aea5750611b31565b60405162461bcd60e51b815260206004820181815283516024840152835184939192839260440191908501908083836000831561189d578181015183820152602001611885565b60405162461bcd60e51b81526004018080602001828103825260348152602001806120396034913960400191505060405180910390fd5b6001600160e01b0319811663bc197c8160e01b14611bb75760405162461bcd60e51b815260040180806020018281038252602881526020018061206d6028913960400191505060405180910390fd5b50505050505050565b6001600160a01b038416611c055760405162461bcd60e51b815260040180806020018281038252602181526020018061220a6021913960400191505060405180910390fd5b6000611c0f611845565b9050611c218160008761162e88611d3f565b60008481526001602090815260408083206001600160a01b0389168452909152902054611c4e90846118e0565b60008581526001602090815260408083206001600160a01b03808b16808652918452828520959095558151898152928301889052815190948616927fc3d58168c5ae7397731d063d5bbf3d657854427343f4c083240f7aacaa2d0f6292908290030190a4611cc181600087878787611d83565b5050505050565b60408051601480825281830190925260609183831b91839160208201818036833701905050905060005b60148160ff16101561116657828160ff1660148110611d0d57fe5b1a60f81b828260ff1681518110611d2057fe5b60200101906001600160f81b031916908160001a905350600101611cf2565b604080516001808252818301909252606091829190602080830190803683370190505090508281600081518110611d7257fe5b602090810291909101015292915050565b611d95846001600160a01b0316611ef4565b15610e1a57836001600160a01b031663f23a6e6187878686866040518663ffffffff1660e01b815260040180866001600160a01b03168152602001856001600160a01b0316815260200184815260200183815260200180602001828103825283818151815260200191508051906020019080838360005b83811015611e24578181015183820152602001611e0c565b50505050905090810190601f168015611e515780820380516001836020036101000a031916815260200191505b509650505050505050602060405180830381600087803b158015611e7457600080fd5b505af1925050508015611e9957506040513d6020811015611e9457600080fd5b505160015b611ea557611adf611f93565b6001600160e01b0319811663f23a6e6160e01b14611bb75760405162461bcd60e51b815260040180806020018281038252602881526020018061206d6028913960400191505060405180910390fd5b3b151590565b828054600181600116156101000203166002900490600052602060002090601f016020900481019282601f10611f3b57805160ff1916838001178555611f68565b82800160010185558215611f68579182015b82811115611f68578251825591602001919060010190611f4d565b50611f74929150611f78565b5090565b5b80821115611f745760008155600101611f79565b60e01c90565b600060443d1015611fa357611248565b600481823e6308c379a0611fb78251611f8d565b14611fc157611248565b6040513d600319016004823e80513d67ffffffffffffffff8160248401118184111715611ff15750505050611248565b8284019250825191508082111561200b5750505050611248565b503d8301602082840101111561202357505050611248565b601f01601f191681016020016040529150509056fe455243313135353a207472616e7366657220746f206e6f6e2045524331313535526563656976657220696d706c656d656e746572455243313135353a204552433131353552656365697665722072656a656374656420746f6b656e73455243313135353a2062616c616e636520717565727920666f7220746865207a65726f20616464726573734f776e61626c653a206e6577206f776e657220697320746865207a65726f2061646472657373455243313135353a2063616c6c6572206973206e6f74206f776e6572206e6f7220617070726f766564455243313135353a207472616e7366657220746f20746865207a65726f2061646472657373455243313135353a207472616e736665722063616c6c6572206973206e6f74206f776e6572206e6f7220617070726f766564455243313135353a20696e73756666696369656e742062616c616e636520666f72207472616e73666572455243313135353a2073657474696e6720617070726f76616c2073746174757320666f722073656c66455243313135353a206163636f756e747320616e6420696473206c656e677468206d69736d61746368455243313135353a2069647320616e6420616d6f756e7473206c656e677468206d69736d61746368455243313135353a206d696e7420746f20746865207a65726f2061646472657373a2646970667358221220a348963dae44982044a96a0de6c4c7b622c12deb9ef6e7da78014bf6c6daa29c64736f6c634300060c0033",
  "linkReferences": {},
  "deployedLinkReferences": {}
}